:020000040800F2
:1000000050040020650100089B0F0008410F000804
:10001000990F0008710200087D110008000000001F
:100020000000000000000000000000009F0F00081A
:1000300073020008000000009D0F0008A10F0008D7
:100040007F0100087F0100087F0100087F01000890
:100050007F0100087F0100087F0100087F01000880
:100060007F0100087F0100087F0100087F01000870
:100070007F0100087F0100087F0100087F01000860
:100080007F0100087F0100087F0100087F01000850
:100090007F0100087F0100087F0100087F01000840
:1000A0007F0100087F0100087F0100087F01000830
:1000B0007F0100087F0100087F0100087F01000820
:1000C0007F0100087F0100087F0100087F01000810
:1000D0007F010008711100087F0100087F010008FE
:1000E0007F0100087F0100087F0100080000000078
:1000F0000000000000000000000000000000000000
:1001000000000000000000007F0100087F010008DF
:100110007F0100087F0100087F0100087F010008BF
:100120007F0100087F0100087F0100087F010008AF
:100130007F0100087F0100087F0100087F0100089F
:100140007F0100087F0100087F0100087F0100088F
:10015000DFF80CD000F07AF800480047BD11000825
:10016000500400200648804706480047FEE7FEE7A7
:10017000FEE7FEE7FEE7FEE7FEE7FEE7FEE7FEE757
:10018000FD0F0008510100082DE9F05F0546002031
:1001900092469B4688460646814640241BE02846F8
:1001A00041464746224600F020F853465A46C01AB8
:1001B000914110D311461846224600F038F82D1A06
:1001C00067EB01084F4622460120002100F02FF87E
:1001D00017EB00094E41201EA4F10104DFDC484664
:1001E00031462A464346BDE8F09F202A04DB203AE8
:1001F00021FA02F00021704721FA02F3D040C2F147
:1002000020029140084319467047D2B201E000F83D
:10021000012B491EFBD270470022F6E710B51346AA
:100220000A4604461946FFF7F0FF204610BD202A73
:1002300004DB203A00FA02F1002070479140C2F13D
:10024000200320FA03F3194390407047064C074DF2
:1002500006E0E06840F0010394E807009847103496
:10026000AC42F6D3FFF778FFE81100080812000847
:10027000FEE7704772B6FEE72DE9F05F90F82110B7
:100280000024022903D004218163012485E0016850
:100290000A6822F00E020A6001680A6822F0010270
:1002A0000A603F4E3E4FB215DFF8F4C0DFF8F09021
:1002B000DFF8ECA0DFF8E8B0DFF8E4E00168783FB1
:1002C00013011502ACF1640CA9F15009AAF13C0A22
:1002D000ABF1280BAEF1140E4FF48018B14227D9C0
:1002E000B9420ED0614512D049451DD0514518D0B4
:1002F000594518D0714501D1424615E0294EB14209
:1003000001D1012210E0274E1436B14201D1102252
:100310000AE0244E2836B14206D0224A3C329142AD
:1003200001D11A4600E02A461E49091F0A602BE047
:10033000B94213D0614517D0494522D051451DD04F
:1003400059451DD0714501D142461AE0B14202D152
:100350004FF0807215E0134EB14201D1012210E03E
:10036000104E1436B14201D110220AE00D4E28364B
:10037000B14206D00B4A3C32914201D11A4600E00C
:100380002A46074980394A60012180F8211000215E
:1003900080F82010416B01B188472046BDE8F09FEE
:1003A00080000240080402402DE9F84FDFF8B891C0
:1003B000002409F1040A0AF1040B23460F270BF16C
:1003C000040EC9E00125A5402A40AA427DD1674E0E
:1003D000D1F804C0ACEB0608B44532D014DCBCF153
:1003E000030F3AD009DCBCF1000F2AD0BCF1010F99
:1003F0001CD0BCF1020F31D11DE0BCF1110F17D0A0
:10040000BCF1120F2AD119E0B8F5881F19D006DC0B
:10041000B8F5803F15D0B8F5801F1FD111E0B8F5B1
:10042000001F0ED0B8F5041F18D10AE0CB6815E004
:10043000CB681B1D12E0CB6808330FE0CB680C3390
:100440000CE08B682BB1012B4FF0080303D0456102
:1004500004E0042302E0056100E00023FF2A01D844
:10046000064601E000F104064FEA840501D9A5F132
:100470002005D6F8008007FA05FC28EA0C0803FAE4
:1004800005F548EA0508C6F800804D68ED0062D51C
:10049000374DAE6946F00106AE61AD6924F0030642
:1004A00005F001050095334D06EB050CDCF808500E
:1004B000A607360F07FA06F825EA0805DFF8B88020
:1004C000404503D14FF0000817E044E0DFF8AC806E
:1004D000404502D14FF001080FE0DFF8A48040450D
:1004E00002D14FF0020808E0DFF89880404502D1C1
:1004F0004FF0030801E04FF0040808FA06F848EA54
:100500000508CCF808804D68D9F80060ED034D4629
:1005100001D5164300E096432E604D68DAF800607E
:10052000AD03554601D5164300E096432E604D6855
:10053000DBF80060ED025D4601D5164300E096430E
:100540002E604D68DEF80060AD02754601D5164399
:1005500000E096432E60641C0D682A46E5407FF457
:1005600031AFBDE8F88F0000000401400000111019
:10057000001002400000014000080140000C014052
:1005800000100140001401400148806870470000DD
:1005900000000020024881680278114481607047A1
:1005A00000000020074810B5016841F0100101600B
:1005B000032000F075F8002000F006F800F024F8A1
:1005C000002010BD0020024070B50D4D04464FF4D0
:1005D0007A712878B1FBF0F00A490968B1FBF0F0B4
:1005E00000F076FB48B9102C07D200222146501E9D
:1005F00000F036F800206C6070BD012070BD000076
:10060000000000200C0000200C4808B5816941F072
:1006100001018161816901F001010091C16941F02D
:100620008051C161C06900F0805000900448416869
:1006300021F0E06141F08061416008BD001002409E
:1006400000000140002809DB00F01F020121914059
:100650004009800000F1E020C0F800117047000060
:10066000F0B40E4B1B680C46C3F30223C3F107051D
:10067000042D00D90425191D072901D2002300E00B
:10068000DB1E012606FA05F1491E214099409E40D5
:10069000761E16403143F0BC00F071BD0CED00E059
:1006A000064900F0070208684FF6FF03184040EAC9
:1006B0000220034A10430860704700000CED00E080
:1006C0000000FA052DE9F0470F46050061D0434EC2
:1006D000306800F00700B84209D2306820F0070007
:1006E00038433060306800F00700B84251D12868C4
:1006F0003B4C810712D5400703D5606840F4E060A9
:1007000060602878000703D5606840F4605060603E
:100710006068A96820F0F000084360602878C0078E
:1007200028D06868012810D02168022810D08907D5
:1007300000292EDA616821F0030101436160FFF7AF
:1007400023FF804641F288390DE021688903EFE7F5
:100750008901EDE7FFF718FFA0EB0801494502D931
:100760000320BDE8F0876068696800F00C00B0EB1A
:10077000810FEFD1306800F00700B8420BD9306824
:1007800020F0070038433060306800F00700B842BE
:1007900001D00120E5E72878400705D56068E968C1
:1007A00020F4E060084360602878000706D56068A0
:1007B000296920F4605040EAC100606000F038F818
:1007C0006168084AC1F30311515CC84006490860DA
:1007D00006480068FFF7F8FE0020C2E7002002404C
:1007E00000100240CE1100080C0000200400002080
:1007F0000448054900684968044AC1F30221515C74
:10080000C84070470C00002000100240DE110008B4
:100810000448054900684968044AC1F3C221515C93
:10082000C84070470C00002000100240DE11000894
:10083000F0B523A289B00FCA04AC84E80F0024A14C
:100840000FC98DE80F0026494A68264802F00C03BC
:10085000042B2FD0082B2DD104A8C2F38343C45CF2
:10086000D00329D5C86A00F00F001DF80020C86A1F
:10087000C00316D5C86AC96AC0F30310C1F30321C7
:10088000401C891CA0FB0223A1FB0416154F002568
:10089000A1FB070C06FB07C601FB0561FFF774FC13
:1008A00003E010486043B0FBF2F09DF81D10A14238
:1008B00000D1400809B0F0BD0B486043FAE70000E2
:1008C000000004050607080900000000000D0000F4
:1008D0000102030405060708090A0B0C0D0E0F1090
:1008E0000010024000127A0000093D002DE9F84F87
:1008F000040070D02078F14DC00749D06868C0F37B
:100900008100012807D06868C0F38100022809D15E
:100910006868C00306D52868800339D5A068002818
:10092000E7D035E0A068B0F5803F0BD010B1B0F54E
:10093000A02F11D0286820F480302860286820F487
:10094000802002E0286840F480302860A06890B1E0
:10095000FFF71AFE06460AE0286840F48020286067
:10096000F0E700BFFFF710FE801B642876D82868E8
:100970008003F7D50CE0FFF707FE064605E000BF51
:10098000FFF702FE801B6428F0D828688003F7D4A4
:100990002078CB4E80074FF001094FF000073AD581
:1009A000686810F00C0F07D06868C0F38100022857
:1009B00009D16868C00306D42868800715D5606926
:1009C000012808D111E06069B8B1C6F80090FFF7BE
:1009D000DBFD804606E042E1FFF7D6FDA0EB080014
:1009E0000228C3D828688007F6D52868A16920F0B6
:1009F000F80040EAC10028600DE03760FFF7C4FD51
:100A0000804605E0FFF7C0FDA0EB08000228ADD846
:100A100028688007F6D4207800072ED5A948E16918
:100A2000E9B1C0F80090FFF7AFFD804606E000BFD7
:100A3000FFF7AAFDA0EB0800022897D8686A800794
:100A4000F6D5A1484FF4FA510068B0FBF1F00090E0
:100A500000BF0098411E0091FAD20EE0B0E007609E
:100A6000FFF792FD804605E0FFF78EFDA0EB080042
:100A7000022889D8686A8007F6D42078400763D5B1
:100A8000E8694FF00008C00009D4E86940F08050E0
:100A9000E861E8694FF0010800F0805000908B4851
:100AA0000168C90512D40168834641F48071016070
:100AB000FFF76AFD824605E0FFF766FDA0EB0A003E
:100AC00064287DD8DBF80000C005F5D52069012831
:100AD0000AD008B1052813D0286A20F00100286246
:100AE000286A20F0040002E0286A40F00100286231
:100AF000206941F2883B98B1FFF746FD82460BE042
:100B0000286A40F004002862EEE700BFFFF73CFDD2
:100B1000A0EB0A01594553D8286A8007F6D50CE0A6
:100B2000FFF732FD824605E0FFF72EFDA0EB0A013C
:100B3000594545D8286A8007F6D4B8F1000F03D08C
:100B4000E86920F08050E861E06AD0B36968C903C1
:100B500007D56968C1F38101022902D1E96AC90395
:100B60007DD4022808D0E86A20F48030E862B766B5
:100B7000FFF70AFD80463BE02868C00005D5E86A1B
:100B8000616B00F0F000884269D1B766FFF7FCFCAA
:100B9000804605E0FFF7F8FCA0EB0800642874D855
:100BA00028680001F6D4E86A616B20F0F000084381
:100BB000E862E86A216B20F470600843E86201E0B3
:100BC00063E018E0C6F86890FFF7DEFC804605E0B9
:100BD000FFF7DAFCA0EB0800642856D8286800016B
:100BE000F6D508E0FFF7D0FCA0EB080064284CD84D
:100BF00028680001F6D4206A90B36968C1F38101C6
:100C0000022949D00228376603D0FFF7BDFC04460D
:100C10003EE0FFF7B9FC074605E000BFFFF7B4FC74
:100C2000C01B022831D828688001F7D4606AB0F56B
:100C3000803F09D1E86A61680843E862E86AE168D0
:100C400020F00F000843E862D4E90901084369680D
:100C500021F4741108436860C6F8609001E028E050
:100C600029E0FFF791FC044605E000BFFFF78CFC8C
:100C7000001B022809D828688001F7D51BE000BFB7
:100C8000FFF782FC001B022802D90320BDE8F88F81
:100C900028688001F4D40EE00128F7D06868626A01
:100CA00000F48031914204D1A16A00F470108842AE
:100CB00001D00120EAE70020E8E700000010024030
:100CC00000004242800442420C00002000700040BC
:100CD00010B5401EB0F1807F01D3012010BD4FF050
:100CE000E02460610F21601700F049FA0020A06144
:100CF00007202061002010BD7047000070B5026819
:100D000004461068D168536910F00F0F52D003F0F9
:100D1000010501F490762E435FD0C20705D0CA05C5
:100D200003D5E26B42F00102E263420705D5DA0720
:100D300003D0E26B42F00202E263820705D5DA07D4
:100D400003D0E26B42F00402E263020707D501F030
:100D500020022A4303D0E26B42F00802E263E26B16
:100D6000002A33D0800604D5880602D5204600F03C
:100D70005CF920684069E16BC0F38010090700D47A
:100D800028B3204600F043F92068416949061AD586
:100D9000416921F040014161606BA0B12D4941637F
:100DA000606BFFF769FA002810D0606B416BBDE8FB
:100DB00070400847830610D58B060ED52046BDE847
:100DC000704000F032B92046FFF796FF70BD204614
:100DD000FFF792FF0020E06370BD03062BD50B06E2
:100DE00029D594F839002128F6D1A068B0F5805FA4
:100DF00001D12069B0B1206A411C216221680078CC
:100E00004860E08C401E0004000CE084E4D12068BF
:100E1000C16821F08001C1602068C16841F04001D3
:100E2000C16070BD206A0088C0F308005060206A6D
:100E3000801C2062E5E74006F3D54806F1D5D1686D
:100E4000204621F04001D160202184F8391000F0C3
:100E500076F870BDFF0F000870B5040004D094F858
:100E60003900002510B106E0012070BD84F838502B
:100E7000204600F023F8242084F839002068C16857
:100E800021F40051C160204600F016F92068016984
:100E900021F4904101612068416921F02A014161FA
:100EA0002068C16841F40051C160E563202084F8E6
:100EB000390084F83A00002070BD000030B585B0DC
:100EC0000024009401940294039400681849884215
:100ED0002CD11848816941F480418161816901F414
:100EE00080410491816941F0040181618069124D62
:100EF00000F0040004904FF4007000900220019074
:100F00000320039069462846FFF74EFA2815CDE9DD
:100F10000004694628460294FFF746FA002211466B
:100F20002520FFF79DFB2520FFF78CFB05B030BD8A
:100F3000003801400010024000080140704770472F
:100F4000FEE70000054808B5816941F004018161B0
:100F5000806900F00400009008BD0000001002400D
:100F60000C4810B50A4901604FF4E131416000219D
:100F700081600C22C160C0E904128161C161FFF788
:100F80006BFF002803D0BDE81040FFF773B910BD18
:100F90000038014010000020FEE7FEE77047704770
:100FA000FFF7F8BA30B593B038216846FFF734F947
:100FB00014210EA8FFF730F902200024009001252B
:100FC000102008940B94CDE905506846FFF78EFC7D
:100FD00008B172B6FEE70F20CDE90E04109411940B
:100FE00000210EA81294FFF76DFB08B172B6FEE760
:100FF0000148056713B030BD00004242704710B58C
:10100000406A0021C185C184FFF776FE10BD0168EA
:10101000CA6822F49072CA6001684A6922F001022B
:101020004A61202180F83A10704710B590F83A10C4
:10103000222901D0022010BD82684FF480539A42C9
:1010400001D1016921B1816A9A421BD04AB10AE0FB
:101050000268816A5268C2F308020A80816A891CA8
:1010600008E0026972B10268526802F07F020A70F9
:10107000816A491C8162C18D491E0904090CC18520
:1010800003D016E002685268F1E70168CA6822F0EE
:101090002002CA600168CA6822F48072CA600168CE
:1010A0004A6922F001024A61202180F83A10FFF7D4
:1010B00045FF002010BD000070B5044600680169BE
:1010C000E26821F44051114301612169A06808439D
:1010D000616908432168CA6841F20C639A4302437C
:1010E000CA6020684169A26921F4407111434161DD
:1010F0001E492068884202D1FFF78AFB01E0FFF712
:1011000077FB00EBC00101EB0012606864218000F6
:10111000B2FBF0F3B3FBF1F36FF018067343B2FBCD
:10112000F0F5B2FBF0F605EB8305322303EB051572
:10113000B5FBF1F5B6FBF1F605F0F00505EB06158C
:10114000B2FBF0F6B2FBF0F0B0FBF1F06FF018027A
:10115000504306EB800003EB0010B0FBF1F0216878
:1011600000F00F002844886070BD00000038014086
:101170000148FFF7C3BD000010000020FEE709078B
:10118000090E002804DB00F1E02080F8001470470D
:1011900000F00F0000F1E02080F8141D704702E01D
:1011A00008C8121F08C1002AFAD1704770470020F2
:1011B00001E001C1121F002AFBD17047FFF7F2F9CD
:1011C000FFF7F0FEFFF7BEFEFFF7CAFEFEE70000E6
:1011D00000000000000001020304060708090000E7
:1011E00000000102030400000812000800000020B3
:1011F000100000009E1100081812000810000020C6
:1012000040040000AE1100080100000010000000C2
:08121000000000000024F400BE
:04000005080001519D
:00000001FF
